{
    "contractName": "UniswapAndCoinManager",
    "abi": [
        {
            "inputs": [],
            "stateMutability": "nonpayable",
            "type": "constructor"
        },
        {
            "inputs": [
                {
                    "internalType": "address",
                    "name": "target",
                    "type": "address"
                }
            ],
            "name": "AddressEmptyCode",
            "type": "error"
        },
        {
            "inputs": [
                {
                    "internalType": "address",
                    "name": "account",
                    "type": "address"
                }
            ],
            "name": "AddressInsufficientBalance",
            "type": "error"
        },
        {
            "inputs": [],
            "name": "FailedInnerCall",
            "type": "error"
        },
        {
            "inputs": [
                {
                    "internalType": "address",
                    "name": "owner",
                    "type": "address"
                }
            ],
            "name": "OwnableInvalidOwner",
            "type": "error"
        },
        {
            "inputs": [
                {
                    "internalType": "address",
                    "name": "account",
                    "type": "address"
                }
            ],
            "name": "OwnableUnauthorizedAccount",
            "type": "error"
        },
        {
            "inputs": [
                {
                    "internalType": "address",
                    "name": "token",
                    "type": "address"
                }
            ],
            "name": "SafeERC20FailedOperation",
            "type": "error"
        },
        {
            "anonymous": false,
            "inputs": [
                {
                    "indexed": true,
                    "internalType": "address",
                    "name": "coinAddress",
                    "type": "address"
                },
                {
                    "indexed": true,
                    "internalType": "uint256",
                    "name": "mintedBalance",
                    "type": "uint256"
                }
            ],
            "name": "CoinDeployed",
            "type": "event"
        },
        {
            "anonymous": false,
            "inputs": [
                {
                    "indexed": true,
                    "internalType": "address",
                    "name": "previousOwner",
                    "type": "address"
                },
                {
                    "indexed": true,
                    "internalType": "address",
                    "name": "newOwner",
                    "type": "address"
                }
            ],
            "name": "OwnershipTransferred",
            "type": "event"
        },
        {
            "anonymous": false,
            "inputs": [
                {
                    "indexed": true,
                    "internalType": "address",
                    "name": "pool",
                    "type": "address"
                },
                {
                    "indexed": true,
                    "internalType": "uint256",
                    "name": "amount1",
                    "type": "uint256"
                },
                {
                    "indexed": true,
                    "internalType": "uint256",
                    "name": "amount2",
                    "type": "uint256"
                }
            ],
            "name": "PoolCreated",
            "type": "event"
        },
        {
            "inputs": [],
            "name": "DECIMALS",
            "outputs": [
                {
                    "internalType": "uint256",
                    "name": "",
                    "type": "uint256"
                }
            ],
            "stateMutability": "view",
            "type": "function"
        },
        {
            "inputs": [],
            "name": "FEE",
            "outputs": [
                {
                    "internalType": "uint24",
                    "name": "",
                    "type": "uint24"
                }
            ],
            "stateMutability": "view",
            "type": "function"
        },
        {
            "inputs": [],
            "name": "PRICE_TOKEN0",
            "outputs": [
                {
                    "internalType": "uint256",
                    "name": "",
                    "type": "uint256"
                }
            ],
            "stateMutability": "view",
            "type": "function"
        },
        {
            "inputs": [],
            "name": "TICK_LOWER",
            "outputs": [
                {
                    "internalType": "int24",
                    "name": "",
                    "type": "int24"
                }
            ],
            "stateMutability": "view",
            "type": "function"
        },
        {
            "inputs": [],
            "name": "TICK_UPPER",
            "outputs": [
                {
                    "internalType": "int24",
                    "name": "",
                    "type": "int24"
                }
            ],
            "stateMutability": "view",
            "type": "function"
        },
        {
            "inputs": [],
            "name": "TOKEN_AMOUNT_FOR_LIQUIDITY",
            "outputs": [
                {
                    "internalType": "uint256",
                    "name": "",
                    "type": "uint256"
                }
            ],
            "stateMutability": "view",
            "type": "function"
        },
        {
            "inputs": [],
            "name": "_getLatestETHUSDPrice",
            "outputs": [
                {
                    "internalType": "uint256",
                    "name": "",
                    "type": "uint256"
                }
            ],
            "stateMutability": "view",
            "type": "function"
        },
        {
            "inputs": [],
            "name": "coinAddress",
            "outputs": [
                {
                    "internalType": "address",
                    "name": "",
                    "type": "address"
                }
            ],
            "stateMutability": "view",
            "type": "function"
        },
        {
            "inputs": [
                {
                    "internalType": "uint256",
                    "name": "ethForPool",
                    "type": "uint256"
                }
            ],
            "name": "deployCoinAndPool",
            "outputs": [],
            "stateMutability": "payable",
            "type": "function"
        },
        {
            "inputs": [],
            "name": "getUniswapPool",
            "outputs": [
                {
                    "internalType": "address",
                    "name": "",
                    "type": "address"
                }
            ],
            "stateMutability": "view",
            "type": "function"
        },
        {
            "inputs": [
                {
                    "internalType": "address",
                    "name": "participant",
                    "type": "address"
                },
                {
                    "internalType": "uint256",
                    "name": "amount",
                    "type": "uint256"
                }
            ],
            "name": "mintTokens",
            "outputs": [],
            "stateMutability": "nonpayable",
            "type": "function"
        },
        {
            "inputs": [],
            "name": "owner",
            "outputs": [
                {
                    "internalType": "address",
                    "name": "",
                    "type": "address"
                }
            ],
            "stateMutability": "view",
            "type": "function"
        },
        {
            "inputs": [],
            "name": "presaleContractAddress",
            "outputs": [
                {
                    "internalType": "address",
                    "name": "",
                    "type": "address"
                }
            ],
            "stateMutability": "view",
            "type": "function"
        },
        {
            "inputs": [],
            "name": "renounceOwnership",
            "outputs": [],
            "stateMutability": "nonpayable",
            "type": "function"
        },
        {
            "inputs": [
                {
                    "internalType": "address",
                    "name": "contractAddress",
                    "type": "address"
                }
            ],
            "name": "setPresaleContractAddress",
            "outputs": [],
            "stateMutability": "nonpayable",
            "type": "function"
        },
        {
            "inputs": [],
            "name": "swapRouter",
            "outputs": [
                {
                    "internalType": "contract ISwapRouter",
                    "name": "",
                    "type": "address"
                }
            ],
            "stateMutability": "view",
            "type": "function"
        },
        {
            "inputs": [],
            "name": "transferCoinOwnership",
            "outputs": [],
            "stateMutability": "nonpayable",
            "type": "function"
        },
        {
            "inputs": [
                {
                    "internalType": "address",
                    "name": "newOwner",
                    "type": "address"
                }
            ],
            "name": "transferOwnership",
            "outputs": [],
            "stateMutability": "nonpayable",
            "type": "function"
        },
        {
            "inputs": [],
            "name": "uniswapFactory",
            "outputs": [
                {
                    "internalType": "contract IUniswapV3Factory",
                    "name": "",
                    "type": "address"
                }
            ],
            "stateMutability": "view",
            "type": "function"
        },
        {
            "inputs": [],
            "name": "uniswapPool",
            "outputs": [
                {
                    "internalType": "address",
                    "name": "",
                    "type": "address"
                }
            ],
            "stateMutability": "view",
            "type": "function"
        },
        {
            "inputs": [
                {
                    "internalType": "uint256",
                    "name": "amount0Owed",
                    "type": "uint256"
                },
                {
                    "internalType": "uint256",
                    "name": "amount1Owed",
                    "type": "uint256"
                },
                {
                    "internalType": "bytes",
                    "name": "data",
                    "type": "bytes"
                }
            ],
            "name": "uniswapV3MintCallback",
            "outputs": [],
            "stateMutability": "nonpayable",
            "type": "function"
        },
        {
            "inputs": [
                {
                    "internalType": "int256",
                    "name": "amount0Delta",
                    "type": "int256"
                },
                {
                    "internalType": "int256",
                    "name": "amount1Delta",
                    "type": "int256"
                },
                {
                    "internalType": "bytes",
                    "name": "data",
                    "type": "bytes"
                }
            ],
            "name": "uniswapV3SwapCallback",
            "outputs": [],
            "stateMutability": "nonpayable",
            "type": "function"
        },
        {
            "inputs": [],
            "name": "weth",
            "outputs": [
                {
                    "internalType": "contract IWETH9",
                    "name": "",
                    "type": "address"
                }
            ],
            "stateMutability": "view",
            "type": "function"
        }
    ],
    "bytecode": "6080806040523460f557331560e2575f8054336001600160a01b0319821681178355916001600160a01b03909116907f8be0079c531659141344cd1fd0a4f28419497f9722a3daafe3b4186f6b6457e09080a3600180546001600160a01b0319908116731f98431c8ad98523631ae4a59f267346ea31f9841790915560028054821673c02aaa39b223fe8d0a0e5c4f27ead9083c756cc2179055600380548216735f4ec3df9cbd43714fe2740f5e3616155c5b84191790556004805490911673e592427a0aece92de3edee1f18e0157c05861564179055613c0590816100fa8239f35b631e4fbdf760e01b5f525f60045260245ffd5b5f80fdfe6080806040526004361015610012575f80fd5b5f905f3560e01c90816321345f1f146117ab57508063239f3af71461178e57806326c84cc41461176c5780632bb8d152146116e95780632e0f2625146116c75780633fc8cef31461169f57806347377d92146116815780635e935297146107ab5780636d414a3314610783578063715018a6146107295780638bdb2afa146107005780638da5cb5b146106d9578063983733f0146106585780639a78e6ae146105a1578063bdd3d82514610578578063c31c9c071461054f578063c57981b514610532578063d348799714610391578063e2cc31ba1461036e578063f0dda65c146102c0578063f2fde38b1461023a578063fa461e33146101465763fdc61dd11461011b575f80fd5b346101435780600319360112610143576005546040516001600160a01b039091168152602090f35b80fd5b50346101435760603660031901126101435760243560043560443567ffffffffffffffff81116102365761017e9036906004016117f7565b50506007546001600160a01b031633036101df578281136101c1575b508181136101a6575080f35b6002546101be919033906001600160a01b03166119f9565b80f35b6005546101d9919033906001600160a01b03166119f9565b5f61019a565b60405162461bcd60e51b815260206004820152602960248201527f43616c6c6261636b2063616c6c65642066726f6d20756e617574686f72697a6560448201526864206164647265737360b81b6064820152608490fd5b8380fd5b5034610143576020366003190112610143576102546117ce565b61025c611988565b6001600160a01b031680156102ac5781546001600160a01b03198116821783556001600160a01b03167f8be0079c531659141344cd1fd0a4f28419497f9722a3daafe3b4186f6b6457e08380a380f35b631e4fbdf760e01b82526004829052602482fd5b503461014357604036600319011261014357806102db6117ce565b6102f060018060a01b036006541633146118ed565b6005546001600160a01b0316610307811515611944565b803b1561036a576040516340c10f1960e01b81526001600160a01b03929092166004830152602480359083015282908290604490829084905af1801561035f5761034e5750f35b8161035891611825565b6101435780f35b6040513d84823e3d90fd5b5050fd5b503461014357806003193601126101435760206040516703782dace9d900008152f35b50346101435760603660031901126101435760243560043560443567ffffffffffffffff8111610236576103c99036906004016117f7565b33156104f657816020918101031261023657356001600160a01b038116036104f257806104d2575b50806103fb575080f35b6002546040516370a0823160e01b81523060048201526001600160a01b039091169190602081602481865afa80156104c7578291859161048e575b5010610449576101be91339030906119ae565b60405162461bcd60e51b815260206004820152601c60248201527f496e73756666696369656e74205745544820696e2062616c616e6365000000006044820152606490fd5b9150506020813d6020116104bf575b816104aa60209383611825565b810103126104bb578190515f610436565b5f80fd5b3d915061049d565b6040513d86823e3d90fd5b6005546104ec9190339030906001600160a01b03166119ae565b5f6103f1565b8280fd5b60405162461bcd60e51b8152602060048201526014602482015273496e76616c696420706f6f6c206164647265737360601b6044820152606490fd5b50346101435780600319360112610143576020604051610bb88152f35b50346101435780600319360112610143576004546040516001600160a01b039091168152602090f35b50346101435780600319360112610143576007546040516001600160a01b039091168152602090f35b50346101435780600319360112610143576105ba611988565b60055481906001600160a01b03166105d3811515611944565b81546001600160a01b0316813b1561036a57829160248392604051948593849263f2fde38b60e01b845260048401525af1801561035f57610643575b5080546001600160a01b0316337f8be0079c531659141344cd1fd0a4f28419497f9722a3daafe3b4186f6b6457e08380a380f35b8161064d91611825565b61014357805f61060f565b50346101435780600319360112610143576007546001600160a01b0316801561068657602090604051908152f35b60405162461bcd60e51b815260206004820152602560248201527f556e697377617020706f6f6c20686173206e6f74206265656e2063726561746560448201526419081e595d60da1b6064820152608490fd5b5034610143578060031936011261014357546040516001600160a01b039091168152602090f35b50346101435780600319360112610143576001546040516001600160a01b039091168152602090f35b5034610143578060031936011261014357610742611988565b80546001600160a01b03198116825581906001600160a01b03167f8be0079c531659141344cd1fd0a4f28419497f9722a3daafe3b4186f6b6457e08280a380f35b50346101435780600319360112610143575060206a2116545850052128000000604051908152f35b5060203660031901126104bb576004356107d060018060a01b036006541633146118ed565b6a211654585005212800000090604051611b6780820182811067ffffffffffffffff82111761166d57829161206983393081526020810185905203604001905ff0801561158d57600580546001600160a01b0319166001600160a01b03929092169182179055918231837f2596bbbe2f32528ca6b9de95065229138aa9186e745b4c92242aee76fe1c82c75f80a361086661185e565b670de0b6b3a7640000810290808204670de0b6b3a764000014901517156116185761089090611b28565b5f600382111561165f5750808060011c6001810180911161161857905b82821061162c5750505b8060301b90808204660100000000000014901517156116185760025460015460405163a167129560e01b815260048101969096526001600160a01b039182166024870152610bb860448701529181169291602091869160649183915f91165af193841561158d575f946115d4575b506001600160a01b0384169384156115985760055461095090839083906001600160a01b0316611dbd565b6002546001600160a01b0316803b156104bb575f8591600460405180948193630d0e30db60e41b83525af1801561158d57611578575b5060025461099e9185916001600160a01b0316611dbd565b833b15611574578460405163f637731d60e01b81528360048201528181602481838a5af1801561035f5761155f575b5050600780546001600160a01b03191685179055620d89b491620d89e8906109f56001611f25565b6109ff6001611f25565b861561154c57866001600160881b036ffffcb933bd6fad37aa2d162d1a5940015b1690611513575b6ffff2e50f5f656932ef12357cf3c7fdcc8102908082046ffff2e50f5f656932ef12357cf3c7fdcc14901517156111025760801c876114da575b6fffcb9843d60f6159c9db58835c9266448102908082046fffcb9843d60f6159c9db58835c92664414901517156111025760801c6fff973b41fa98c081472e6896dfb254c08102908082046fff973b41fa98c081472e6896dfb254c014901517156111025760801c876114a1575b6ffe5dee046a99a2a811c461f1969c30538102908082046ffe5dee046a99a2a811c461f1969c305314901517156111025760801c6ffcbe86c7900a88aedcffc83b479aa3a48102908082046ffcbe86c7900a88aedcffc83b479aa3a414901517156111025760801c8780611466575b61142d575b6fe7159475a2c29b7443b29c7fa6e889d98102908082046fe7159475a2c29b7443b29c7fa6e889d914901517156111025760801c87806113f2575b806113b7575b61137e575b6f31be135f97d08fd981231505542fcfa68102908082046f31be135f97d08fd981231505542fcfa614901517156111025760801c6f09aa508b5b7a84e1c677de54f3e99bc98102908082046f09aa508b5b7a84e1c677de54f3e99bc914901517156111025760801c87611347575b6d2216e584f5fa1ea926041bedfe988102908082046d2216e584f5fa1ea926041bedfe9814901517156111025760801c6b048a170391f7dc42444e8fa28102908082046b048a170391f7dc42444e8fa214901517156111025760801c87611339575b63ffffffff811661132e57610c7f88915b6001600160a01b039260ff169060201c611b1b565b1691610c8b6001611f25565b50610c966001611f25565b861561131b57866001600160881b036ffffcb933bd6fad37aa2d162d1a5940015b16906112e2575b6ffff2e50f5f656932ef12357cf3c7fdcc8102908082046ffff2e50f5f656932ef12357cf3c7fdcc14901517156111025760801c876112a9575b6fffcb9843d60f6159c9db58835c9266448102908082046fffcb9843d60f6159c9db58835c92664414901517156111025760801c6fff973b41fa98c081472e6896dfb254c08102908082046fff973b41fa98c081472e6896dfb254c014901517156111025760801c87611270575b6ffe5dee046a99a2a811c461f1969c30538102908082046ffe5dee046a99a2a811c461f1969c305314901517156111025760801c6ffcbe86c7900a88aedcffc83b479aa3a48102908082046ffcbe86c7900a88aedcffc83b479aa3a414901517156111025760801c8780611235575b6111fc575b6fe7159475a2c29b7443b29c7fa6e889d98102908082046fe7159475a2c29b7443b29c7fa6e889d914901517156111025760801c87806111c1575b80611186575b61114d575b6f31be135f97d08fd981231505542fcfa68102908082046f31be135f97d08fd981231505542fcfa614901517156111025760801c6f09aa508b5b7a84e1c677de54f3e99bc98102908082046f09aa508b5b7a84e1c677de54f3e99bc914901517156111025760801c87611116575b6d2216e584f5fa1ea926041bedfe988102908082046d2216e584f5fa1ea926041bedfe9814901517156111025760801c6b048a170391f7dc42444e8fa28102908082046b048a170391f7dc42444e8fa214901517156111025760801c80156110ee5792610fa188826040979589610fde966001600160801b039b995f190463ffffffff8116155f146110e357610f3486916001600160a01b039260ff169060201c611b1b565b1680938096508181116110d7575b50506001600160a01b0385168111611085575050610f5f92611fbc565b945b610f8e87519330602086015260208552610f7b8986611825565b60055430906001600160a01b0316611dbd565b60025430906001600160a01b0316611dbd565b84519586948594633c8a7d8d60e01b8652896004870152620d89b3196024870152604486015216606484015260a0608484015260a4830190611a35565b038186865af191828492859461104a575b506110235761101f610fff611a59565b60405162461bcd60e51b8152602060048201529182916024830190611a35565b0390fd5b7f620f7d92e94f37e846b7a037fa45c886f3ab726b58c6531813825a47ad4eec508480a480f35b925092506040823d60401161107d575b8161106760409383611825565b810103126102365760208251920151925f610fef565b3d915061105a565b909290916001600160a01b0381168310156110cb5782916110aa916110b09594611fbc565b93611f6e565b808916828a1610156110c457505b94610f61565b90506110be565b9150506110be92611f6e565b90955092505f80610f42565b610f34600191610c6a565b634e487b7160e01b88526012600452602488fd5b634e487b7160e01b88526011600452602488fd5b6e5d6af8dedb81196699c329225ee6048102908082046e5d6af8dedb81196699c329225ee60414901517156111025760801c610e8e565b6f70d869a156d2a1b890bb3df62baf32f78102908082046f70d869a156d2a1b890bb3df62baf32f714901517156111025760801c610e20565b506fa9f746462d870fdf8a65dc1f90e061e58102908082046fa9f746462d870fdf8a65dc1f90e061e514901517156111025760801c87610e1b565b506fd097f3bdfd2022b8845ad8f792aa58258102908082046fd097f3bdfd2022b8845ad8f792aa582514901517156111025760801c87610e15565b6ff3392b0822b70005940c7a398e4b70f38102908082046ff3392b0822b70005940c7a398e4b70f314901517156111025760801c610dda565b506ff987a7253ac413176f2b074cf7815e548102908082046ff987a7253ac413176f2b074cf7815e5414901517156111025760801c87610dd5565b6fff2ea16466c96a3843ec78b326b528618102908082046fff2ea16466c96a3843ec78b326b5286114901517156111025760801c610d66565b6fffe5caca7e10e4e61c3624eaa0941cd08102908082046fffe5caca7e10e4e61c3624eaa0941cd014901517156111025760801c610cf8565b6ffff97272373d413259a46990580e213a8102908082046ffff97272373d413259a46990580e213a14901517156111025760801c610cbe565b866001600160881b03600160801b610cb7565b610c7f600191610c6a565b80156110ee575f1904610c59565b6e5d6af8dedb81196699c329225ee6048102908082046e5d6af8dedb81196699c329225ee60414901517156111025760801c610bf7565b6f70d869a156d2a1b890bb3df62baf32f78102908082046f70d869a156d2a1b890bb3df62baf32f714901517156111025760801c610b89565b506fa9f746462d870fdf8a65dc1f90e061e58102908082046fa9f746462d870fdf8a65dc1f90e061e514901517156111025760801c87610b84565b506fd097f3bdfd2022b8845ad8f792aa58258102908082046fd097f3bdfd2022b8845ad8f792aa582514901517156111025760801c87610b7e565b6ff3392b0822b70005940c7a398e4b70f38102908082046ff3392b0822b70005940c7a398e4b70f314901517156111025760801c610b43565b506ff987a7253ac413176f2b074cf7815e548102908082046ff987a7253ac413176f2b074cf7815e5414901517156111025760801c87610b3e565b6fff2ea16466c96a3843ec78b326b528618102908082046fff2ea16466c96a3843ec78b326b5286114901517156111025760801c610acf565b6fffe5caca7e10e4e61c3624eaa0941cd08102908082046fffe5caca7e10e4e61c3624eaa0941cd014901517156111025760801c610a61565b6ffff97272373d413259a46990580e213a8102908082046ffff97272373d413259a46990580e213a14901517156111025760801c610a27565b866001600160881b03600160801b610a20565b8161156991611825565b61157457845f6109cd565b8480fd5b6115859196505f90611825565b5f9483610986565b6040513d5f823e3d90fd5b60405162461bcd60e51b8152602060048201526014602482015273141bdbdb0818dc99585d1a5bdb8819985a5b195960621b6044820152606490fd5b9093506020813d602011611610575b816115f060209383611825565b810103126104bb57516001600160a01b03811681036104bb57925f610925565b3d91506115e3565b634e487b7160e01b5f52601160045260245ffd5b90915081801561164b5780611642918304611b1b565b60011c906108ad565b634e487b7160e01b5f52601260045260245ffd5b90156108b7575060016108b7565b634e487b7160e01b5f52604160045260245ffd5b346104bb575f3660031901126104bb576020604051620d89b3198152f35b346104bb575f3660031901126104bb576002546040516001600160a01b039091168152602090f35b346104bb575f3660031901126104bb576020604051670de0b6b3a76400008152f35b346104bb5760203660031901126104bb576117026117ce565b61170a611988565b6001600160a01b03168015611735576bffffffffffffffffffffffff60a01b60065416176006555f80f35b60405162461bcd60e51b815260206004820152600f60248201526e496e76616c6964206164647265737360881b6044820152606490fd5b346104bb575f3660031901126104bb57602061178661185e565b604051908152f35b346104bb575f3660031901126104bb576020604051620d89b48152f35b346104bb575f3660031901126104bb576006546001600160a01b03168152602090f35b600435906001600160a01b03821682036104bb57565b8181029291811591840414171561161857565b9181601f840112156104bb5782359167ffffffffffffffff83116104bb57602083818601950101116104bb57565b90601f8019910116810190811067ffffffffffffffff82111761166d57604052565b519069ffffffffffffffffffff821682036104bb57565b600354604051633fabe5a360e21b81529060a090829060049082906001600160a01b03165afa801561158d575f9061189c575b6305f5e10091500590565b5060a0813d60a0116118e5575b816118b660a09383611825565b810103126104bb57806118cd6305f5e10092611847565b506118df608060208301519201611847565b50611891565b3d91506118a9565b156118f457565b60405162461bcd60e51b815260206004820152602260248201527f43616c6c6572206973206e6f74207468652070726573616c6520636f6e74726160448201526118dd60f21b6064820152608490fd5b1561194b57565b60405162461bcd60e51b815260206004820152601560248201527410dbda5b881b9bdd0819195c1b1bde5959081e595d605a1b6044820152606490fd5b5f546001600160a01b0316330361199b57565b63118cdaa760e01b5f523360045260245ffd5b6040516323b872dd60e01b60208201526001600160a01b0392831660248201529290911660448301526064808301939093529181526119f7916119f2608483611825565b611ab0565b565b60405163a9059cbb60e01b60208201526001600160a01b039290921660248301526044808301939093529181526119f7916119f2606483611825565b805180835260209291819084018484015e5f828201840152601f01601f1916010190565b3d15611a93573d9067ffffffffffffffff821161166d5760405191611a88601f8201601f191660200184611825565b82523d5f602084013e565b606090565b908160209103126104bb575180151581036104bb5790565b5f80611ad89260018060a01b03169360208151910182865af1611ad1611a59565b908361200a565b8051908115159182611b00575b5050611aee5750565b635274afe760e01b5f5260045260245ffd5b611b139250602080918301019101611a98565b155f80611ae5565b9190820180921161161857565b80156104bb576503782dace9d960701b0490565b5f19600160601b8209918160601b91828085109403938085039414611c6f57838211156104bb578190600160601b900981196001810180911161161857611b9690831680930494600184805f0304019085841190036117e4565b920304178160030260038104830361161857600218611bb581846117e4565b6002036002811161161857611bc9916117e4565b611bd381846117e4565b6002036002811161161857611be7916117e4565b611bf181846117e4565b6002036002811161161857611c05916117e4565b611c0f81846117e4565b6002036002811161161857611c23916117e4565b611c2d81846117e4565b600203906002821161161857611c4d91611c46916117e4565b80936117e4565b600203916002831161161857611c6c92611c66916117e4565b906117e4565b90565b50809250156104bb570490565b5f91905f198282099082810292838084109303928084039314611d5457600160601b831015611574578491600160601b91900993611d405750600160a01b90828411900381810291818304149015171561161857611cdb6001806117e4565b806002036002811161161857611cf0916117e4565b806002036002811161161857611d05916117e4565b806002036002811161161857611d1a916117e4565b9283600203936002851161161857611c6c94611d35916117e4565b920360601c176117e4565b634e487b7160e01b81526011600452602490fd5b505050905060601c90565b915f198284099282810292838086109503948086039514611daf57848311156104bb5782910981196001810180911161161857611b9690831680930494600184805f0304019085841190036117e4565b5050809250156104bb570490565b604051636eb1769f60e11b81523060048201526001600160a01b03838116602483018190529490831691602081604481865afa90811561158d575f91611ef1575b50611e4694611e54611e125f948594611b1b565b60405163095ea7b360e01b602082019081526001600160a01b03909416602482015260448101919091529687906064820190565b03601f198101885287611825565b85519082855af190611e64611a59565b82611ebf575b5081611eb4575b5015611e7c57505050565b6119f26119f7936040519063095ea7b360e01b602083015260248201525f604482015260448152611eae606482611825565b82611ab0565b90503b15155f611e71565b80519192508115918215611ed7575b5050905f611e6a565b611eea9250602080918301019101611a98565b5f80611ece565b90506020813d602011611f1d575b81611f0c60209383611825565b810103126104bb5751611e46611dfe565b3d9150611eff565b15611f2c57565b60405162461bcd60e51b81526020600482015260016024820152601560fa1b6044820152606490fd5b6001600160a01b03918216908216039190821161161857565b611fa29291906001600160a01b0380831690821611611fb6575b6001600160a01b0391611f9b9190611f55565b1690611b3c565b6001600160801b0381169081036104bb5790565b90611f88565b611fa292916001600160a01b0380821690831611612004575b611ffd611fee6001600160a01b03838116908516611c7c565b926001600160a01b0392611f55565b1691611d5f565b90611fd5565b9061202e575080511561201f57805190602001fd5b630a12f52160e11b5f5260045ffd5b8151158061205f575b61203f575090565b639996b31560e01b5f9081526001600160a01b0391909116600452602490fd5b50803b1561203756fe610160806040523461056457604081611b6780380380916100208285610568565b8339810103126105645780516001600160a01b03811691828203610564576020015191604051610051604082610568565b600a815260208101906929bcb73a3930a1b7b4b760b11b825260405192610079604085610568565b600a84526929bcb73a3930a1b7b4b760b11b60208501526040519461009f604087610568565b6003865262534e4360e81b6020870152604051956100be604088610568565b60018752603160f81b60208801908152865190966001600160401b0382116104675760035490600182811c9216801561055a575b60208310146104495781601f8493116104ec575b50602090601f8311600114610486575f9261047b575b50508160011b915f199060031b1c1916176003555b8051906001600160401b0382116104675760045490600182811c9216801561045d575b60208310146104495781601f8493116103db575b50602090601f8311600114610375575f9261036a575b50508160011b915f199060031b1c1916176004555b600554908215610357576001600160a81b03198216600891821b610100600160a81b0316176005551c6001600160a01b03167f8be0079c531659141344cd1fd0a4f28419497f9722a3daafe3b4186f6b6457e05f80a36101f28161058b565b610120526101ff84610712565b61014052519020918260e05251902080610100524660a0526040519060208201927f8b73c3c69bb8fe3d512ecc4cf759cc79239f7b179b0ffacaa9a75d522b39400f8452604083015260608201524660808201523060a082015260a0815261026860c082610568565b5190206080523060c05233156103445760ff600554166103355760025481810180911161032157600255335f525f60205260405f208181540190556040519081525f7fddf252ad1be2c89b69c2b068fc378daa952ba7f163c4a11628f55a4df523b3ef60203393a360405161131c908161084b823960805181610eda015260a05181610f97015260c05181610ea4015260e05181610f2901526101005181610f4f015261012051816104e7015261014051816105100152f35b634e487b7160e01b5f52601160045260245ffd5b63d93c066560e01b5f5260045ffd5b63ec442f0560e01b5f525f60045260245ffd5b631e4fbdf760e01b5f525f60045260245ffd5b015190505f8061017e565b60045f9081528281209350601f198516905b8181106103c357509084600195949392106103ab575b505050811b01600455610193565b01515f1960f88460031b161c191690555f808061039d565b92936020600181928786015181550195019301610387565b60045f529091507f8a35acfbc15ff81a39ae7d344fd709f28e8600b4aa8c65c6b64bfe7fe36bd19b601f840160051c8101916020851061043f575b90601f859493920160051c01905b8181106104315750610168565b5f8155849350600101610424565b9091508190610416565b634e487b7160e01b5f52602260045260245ffd5b91607f1691610154565b634e487b7160e01b5f52604160045260245ffd5b015190505f8061011c565b60035f9081528281209350601f198516905b8181106104d457509084600195949392106104bc575b505050811b01600355610131565b01515f1960f88460031b161c191690555f80806104ae565b92936020600181928786015181550195019301610498565b60035f529091507fc2575a0e9e593c00f959f8c92f12db2869c3395a3b0502d05e2516446f71f85b601f840160051c81019160208510610550575b90601f859493920160051c01905b8181106105425750610106565b5f8155849350600101610535565b9091508190610527565b91607f16916100f2565b5f80fd5b601f909101601f19168101906001600160401b0382119082101761046757604052565b908151602081105f14610605575090601f8151116105c55760208151910151602082106105b6571790565b5f198260200360031b1b161790565b604460209160405192839163305a27a960e01b83528160048401528051918291826024860152018484015e5f828201840152601f01601f19168101030190fd5b6001600160401b03811161046757600654600181811c91168015610708575b602082101461044957601f81116106d5575b50602092601f821160011461067457928192935f92610669575b50508160011b915f199060031b1c19161760065560ff90565b015190505f80610650565b601f1982169360065f52805f20915f5b8681106106bd57508360019596106106a5575b505050811b0160065560ff90565b01515f1960f88460031b161c191690555f8080610697565b91926020600181928685015181550194019201610684565b60065f52601f60205f20910160051c810190601f830160051c015b8181106106fd5750610636565b5f81556001016106f0565b90607f1690610624565b908151602081105f1461073d575090601f8151116105c55760208151910151602082106105b6571790565b6001600160401b03811161046757600754600181811c91168015610840575b602082101461044957601f811161080d575b50602092601f82116001146107ac57928192935f926107a1575b50508160011b915f199060031b1c19161760075560ff90565b015190505f80610788565b601f1982169360075f52805f20915f5b8681106107f557508360019596106107dd575b505050811b0160075560ff90565b01515f1960f88460031b161c191690555f80806107cf565b919260206001819286850151815501940192016107bc565b60075f52601f60205f20910160051c810190601f830160051c015b818110610835575061076e565b5f8155600101610828565b90607f169061075c56fe6080806040526004361015610012575f80fd5b5f3560e01c90816306fdde0314610ae457508063095ea7b314610abe57806318160ddd14610aa157806323b872dd14610a69578063313ce56714610a4e5780633644e51514610a345780633f4ba83a146109ce57806340c10f19146109a157806342966c68146109845780635c975abb146109625780635cffe9de14610741578063613255ab1461071e57806370a08231146106e7578063715018a61461068857806379cc6790146106585780637ecebe00146106205780638456cb59146105c757806384b0196e146104cf5780638da5cb5b146104a357806395d89b41146103c1578063a9059cbb14610390578063d505accf1461024b578063d9d98ce41461021c578063dd62ed3e146101cc5763f2fde38b1461012f575f80fd5b346101c85760203660031901126101c857610148610baa565b610150610fbd565b6001600160a01b0381169081156101b55760058054610100600160a81b03198116600893841b610100600160a81b031617909155901c6001600160a01b03167f8be0079c531659141344cd1fd0a4f28419497f9722a3daafe3b4186f6b6457e05f80a3005b631e4fbdf760e01b5f525f60045260245ffd5b5f80fd5b346101c85760403660031901126101c8576101e5610baa565b6101ed610bc0565b6001600160a01b039182165f908152600160209081526040808320949093168252928352819020549051908152f35b346101c85760403660031901126101c857602061024361023a610baa565b60243590610d00565b604051908152f35b346101c85760e03660031901126101c857610264610baa565b61026c610bc0565b604435906064359260843560ff811681036101c85784421161037d576103406103499160018060a01b03841696875f52600860205260405f20908154916001830190556040519060208201927f6e71edae12b1b97f4d1f60370fef10105fa2faae0126114a169c64845d6126c984528a604084015260018060a01b038916606084015289608084015260a083015260c082015260c0815261030e60e082610c8f565b519020610319610ea1565b906040519161190160f01b83526002830152602282015260c43591604260a43592206111f0565b90929192611272565b6001600160a01b0316848103610366575061036493506110d8565b005b84906325c0072360e11b5f5260045260245260445ffd5b8463313c898160e11b5f5260045260245ffd5b346101c85760403660031901126101c8576103b66103ac610baa565b6024359033610def565b602060405160018152f35b346101c8575f3660031901126101c8576040515f6004546103e181610bd6565b808452906001811690811561047f5750600114610421575b61041d8361040981850382610c8f565b604051918291602083526020830190610b86565b0390f35b60045f9081527f8a35acfbc15ff81a39ae7d344fd709f28e8600b4aa8c65c6b64bfe7fe36bd19b939250905b808210610465575090915081016020016104096103f9565b91926001816020925483858801015201910190929161044d565b60ff191660208086019190915291151560051b8401909101915061040990506103f9565b346101c8575f3660031901126101c85760055460405160089190911c6001600160a01b03168152602090f35b346101c8575f3660031901126101c85761056b61050b7f0000000000000000000000000000000000000000000000000000000000000000611156565b6105347f00000000000000000000000000000000000000000000000000000000000000006111b9565b6020610579604051926105478385610c8f565b5f84525f368137604051958695600f60f81b875260e08588015260e0870190610b86565b908582036040870152610b86565b4660608501523060808501525f60a085015283810360c08501528180845192838152019301915f5b8281106105b057505050500390f35b8351855286955093810193928101926001016105a1565b346101c8575f3660031901126101c8576105df610fbd565b6105e761113b565b600160ff1960055416176005557f62e78cea01bee320cd4e420270b5ea74000d11b0c9f74754ebdbfc544b05a2586020604051338152a1005b346101c85760203660031901126101c8576001600160a01b03610641610baa565b165f526008602052602060405f2054604051908152f35b346101c85760403660031901126101c857610364610674610baa565b60243590610683823383610d29565b61104c565b346101c8575f3660031901126101c8576106a0610fbd565b60058054610100600160a81b031981169091555f9060081c6001600160a01b03167f8be0079c531659141344cd1fd0a4f28419497f9722a3daafe3b4186f6b6457e08280a3005b346101c85760203660031901126101c8576001600160a01b03610708610baa565b165f525f602052602060405f2054604051908152f35b346101c85760203660031901126101c857602061024361073c610baa565b610ce6565b346101c85760803660031901126101c8576004356001600160a01b038116908190036101c85761076f610bc0565b60443560643567ffffffffffffffff81116101c857366023820112156101c85780600401359267ffffffffffffffff84116101c85736602485840101116101c8576107b981610ce6565b808411610950575060249160c4826107d386602095610d00565b966107de878a610fe7565b8060405196879586946323e30c8b60e01b865233600487015260018060a01b0316828601528960448601528a606486015260a060848601528260a486015201848401375f838284010152601f801991011681010301815f885af18015610945575f906108f3575b7f439148f0bbc682ca079e46d6e2c2f0c1e3b820f1a291b069d8882abf8cf18dd99150036108e15761088161087a8383610cc5565b3085610d29565b811580156108d9575b156108a3576103b6929161089d91610cc5565b9061104c565b6108ae91508261104c565b156108c65763ec442f0560e01b5f525f60045260245ffd5b634b637e8f60e11b5f525f60045260245ffd5b50600161088a565b8262678c5b60e81b5f5260045260245ffd5b506020813d60201161093d575b8161090d60209383610c8f565b810103126101c8577f439148f0bbc682ca079e46d6e2c2f0c1e3b820f1a291b069d8882abf8cf18dd99051610845565b3d9150610900565b6040513d5f823e3d90fd5b63fd9a760960e01b5f5260045260245ffd5b346101c8575f3660031901126101c857602060ff600554166040519015158152f35b346101c85760203660031901126101c8576103646004353361104c565b346101c85760403660031901126101c8576103646109bd610baa565b6109c5610fbd565b60243590610fe7565b346101c8575f3660031901126101c8576109e6610fbd565b60055460ff811615610a255760ff19166005557f5db9ee0a495bf2e6ff9c91a7834c1ba4fdd244a5e8aa4e537bd38aeae4b073aa6020604051338152a1005b638dfc202b60e01b5f5260045ffd5b346101c8575f3660031901126101c8576020610243610ea1565b346101c8575f3660031901126101c857602060405160128152f35b346101c85760603660031901126101c8576103b6610a85610baa565b610a8d610bc0565b60443591610a9c833383610d29565b610def565b346101c8575f3660031901126101c8576020600254604051908152f35b346101c85760403660031901126101c8576103b6610ada610baa565b60243590336110d8565b346101c8575f3660031901126101c8575f600354610b0181610bd6565b808452906001811690811561047f5750600114610b285761041d8361040981850382610c8f565b60035f9081527fc2575a0e9e593c00f959f8c92f12db2869c3395a3b0502d05e2516446f71f85b939250905b808210610b6c575090915081016020016104096103f9565b919260018160209254838588010152019101909291610b54565b805180835260209291819084018484015e5f828201840152601f01601f1916010190565b600435906001600160a01b03821682036101c857565b602435906001600160a01b03821682036101c857565b90600182811c92168015610c04575b6020831014610bf057565b634e487b7160e01b5f52602260045260245ffd5b91607f1691610be5565b5f9291815491610c1d83610bd6565b8083529260018116908115610c725750600114610c3957505050565b5f9081526020812093945091925b838310610c58575060209250010190565b600181602092949394548385870101520191019190610c47565b915050602093945060ff929192191683830152151560051b010190565b90601f8019910116810190811067ffffffffffffffff821117610cb157604052565b634e487b7160e01b5f52604160045260245ffd5b91908201809211610cd257565b634e487b7160e01b5f52601160045260245ffd5b6001600160a01b03163003610cfc576002541990565b5f90565b6001600160a01b03169050308103610d1757505f90565b635ad3edc960e11b5f5260045260245ffd5b6001600160a01b039081165f8181526001602081815260408084209587168452949052929020549392918401610d60575b50505050565b828410610dcc578015610db9576001600160a01b03821615610da6575f52600160205260405f209060018060a01b03165f5260205260405f20910390555f808080610d5a565b634a1406b160e11b5f525f60045260245ffd5b63e602df0560e01b5f525f60045260245ffd5b508290637dc7a0d960e11b5f5260018060a01b031660045260245260445260645ffd5b6001600160a01b03169081156108c6576001600160a01b0316918215610e8e57610e1761113b565b815f525f60205260405f2054818110610e7557817fddf252ad1be2c89b69c2b068fc378daa952ba7f163c4a11628f55a4df523b3ef92602092855f525f84520360405f2055845f525f825260405f20818154019055604051908152a3565b8263391434e360e21b5f5260045260245260445260645ffd5b63ec442f0560e01b5f525f60045260245ffd5b307f00000000000000000000000000000000000000000000000000000000000000006001600160a01b03161480610f94575b15610efc577f000000000000000000000000000000000000000000000000000000000000000090565b60405160208101907f8b73c3c69bb8fe3d512ecc4cf759cc79239f7b179b0ffacaa9a75d522b39400f82527f000000000000000000000000000000000000000000000000000000000000000060408201527f000000000000000000000000000000000000000000000000000000000000000060608201524660808201523060a082015260a08152610f8e60c082610c8f565b51902090565b507f00000000000000000000000000000000000000000000000000000000000000004614610ed3565b60055460081c6001600160a01b03163303610fd457565b63118cdaa760e01b5f523360045260245ffd5b6001600160a01b0316908115610e8e577fddf252ad1be2c89b69c2b068fc378daa952ba7f163c4a11628f55a4df523b3ef60205f9261102461113b565b61103081600254610cc5565b60025584845283825260408420818154019055604051908152a3565b9091906001600160a01b031680156108c65761106661113b565b805f525f60205260405f20548381106110be576020845f94957fddf252ad1be2c89b69c2b068fc378daa952ba7f163c4a11628f55a4df523b3ef938587528684520360408620558060025403600255604051908152a3565b915063391434e360e21b5f5260045260245260445260645ffd5b6001600160a01b0316908115610db9576001600160a01b0316918215610da65760207f8c5be1e5ebec7d5bd14f71427d1e84f3dd0314c0f7b2291e5b200ac8c7c3b92591835f526001825260405f20855f5282528060405f2055604051908152a3565b60ff6005541661114757565b63d93c066560e01b5f5260045ffd5b60ff811461119c5760ff811690601f821161118d576040519161117a604084610c8f565b6020808452838101919036833783525290565b632cd44ac360e21b5f5260045ffd5b506040516111b6816111af816006610c0e565b0382610c8f565b90565b60ff81146111dd5760ff811690601f821161118d576040519161117a604084610c8f565b506040516111b6816111af816007610c0e565b91907f7fffffffffffffffffffffffffffffff5d576e7357a4501ddfe92f46681b20a08411611267579160209360809260ff5f9560405194855216868401526040830152606082015282805260015afa15610945575f516001600160a01b0381161561125d57905f905f90565b505f906001905f90565b5050505f9160039190565b60048110156112d25780611284575050565b6001810361129b5763f645eedf60e01b5f5260045ffd5b600281036112b6575063fce698f760e01b5f5260045260245ffd5b6003146112c05750565b6335e2f38360e21b5f5260045260245ffd5b634e487b7160e01b5f52602160045260245ffdfea2646970667358221220e82f4274ac9224a9d80168a6125f33b5a1e7995dbfe37fcd23ecfc5734de2f8f64736f6c634300081c0033a2646970667358221220acb4d8466b0b42d25fc0bad7b1146b1b431880d6a6fb930d6ae7ace75bccf43b64736f6c634300081c0033",
    "sourcePath": "/home/leluk/Desktop/Study/Work/Testing Contract for Syntra/project/contracts/UniswapAndCoinManager.sol",
    "compiler": {
        "name": "solc",
        "version": "0.8.28+commit.7893614a"
    },
    "functionHashes": {
        "DECIMALS()": "2e0f2625",
        "FEE()": "c57981b5",
        "PRICE_TOKEN0()": "e2cc31ba",
        "TICK_LOWER()": "47377d92",
        "TICK_UPPER()": "239f3af7",
        "TOKEN_AMOUNT_FOR_LIQUIDITY()": "6d414a33",
        "_getLatestETHUSDPrice()": "26c84cc4",
        "coinAddress()": "fdc61dd1",
        "deployCoinAndPool(uint256)": "5e935297",
        "getUniswapPool()": "983733f0",
        "mintTokens(address,uint256)": "f0dda65c",
        "owner()": "8da5cb5b",
        "presaleContractAddress()": "21345f1f",
        "renounceOwnership()": "715018a6",
        "setPresaleContractAddress(address)": "2bb8d152",
        "swapRouter()": "c31c9c07",
        "transferCoinOwnership()": "9a78e6ae",
        "transferOwnership(address)": "f2fde38b",
        "uniswapFactory()": "8bdb2afa",
        "uniswapPool()": "bdd3d825",
        "uniswapV3MintCallback(uint256,uint256,bytes)": "d3487997",
        "uniswapV3SwapCallback(int256,int256,bytes)": "fa461e33",
        "weth()": "3fc8cef3"
    },
    "gasEstimates": {
        "creation": {
            "codeDepositCost": "3073000",
            "executionCost": "126110",
            "totalCost": "3199110"
        },
        "external": {
            "DECIMALS()": "246",
            "FEE()": "513",
            "PRICE_TOKEN0()": "557",
            "TICK_LOWER()": "293",
            "TICK_UPPER()": "180",
            "TOKEN_AMOUNT_FOR_LIQUIDITY()": "342",
            "_getLatestETHUSDPrice()": "infinite",
            "coinAddress()": "2767",
            "deployCoinAndPool(uint256)": "infinite",
            "getUniswapPool()": "2653",
            "mintTokens(address,uint256)": "infinite",
            "owner()": "2527",
            "presaleContractAddress()": "2271",
            "renounceOwnership()": "28263",
            "setPresaleContractAddress(address)": "26699",
            "swapRouter()": "2618",
            "transferCoinOwnership()": "infinite",
            "transferOwnership(address)": "28615",
            "uniswapFactory()": "2508",
            "uniswapPool()": "2596",
            "uniswapV3MintCallback(uint256,uint256,bytes)": "infinite",
            "uniswapV3SwapCallback(int256,int256,bytes)": "infinite",
            "weth()": "2395"
        },
        "internal": {
            "_calculateSqrtPriceX96()": "infinite",
            "_createAndFundUniswapPool(uint256)": "infinite",
            "_createUniswapPool(uint160,uint256)": "infinite",
            "_deployCoin()": "infinite",
            "_fundUniswapPool(address,uint256,uint256,uint160)": "infinite",
            "_sqrt(uint256)": "infinite"
        }
    }
}